{
  "_format": "hh-sol-artifact-1",
  "contractName": "SevenUpDown",
  "sourceName": "contracts/SevenUpDown.sol",
  "abi": [
    {
      "inputs": [],
      "stateMutability": "nonpayable",
      "type": "constructor"
    },
    {
      "anonymous": false,
      "inputs": [
        {
          "indexed": true,
          "internalType": "address",
          "name": "player",
          "type": "address"
        },
        {
          "indexed": false,
          "internalType": "enum SevenUpDown.Option",
          "name": "option",
          "type": "uint8"
        }
      ],
      "name": "BetPlaced",
      "type": "event"
    },
    {
      "anonymous": false,
      "inputs": [
        {
          "indexed": true,
          "internalType": "address",
          "name": "player",
          "type": "address"
        },
        {
          "indexed": false,
          "internalType": "uint8",
          "name": "diceSum",
          "type": "uint8"
        },
        {
          "indexed": false,
          "internalType": "uint256",
          "name": "payout",
          "type": "uint256"
        }
      ],
      "name": "BetResolved",
      "type": "event"
    },
    {
      "inputs": [
        {
          "internalType": "address",
          "name": "",
          "type": "address"
        }
      ],
      "name": "bets",
      "outputs": [
        {
          "internalType": "enum SevenUpDown.Option",
          "name": "option",
          "type": "uint8"
        },
        {
          "internalType": "bool",
          "name": "resolved",
          "type": "bool"
        },
        {
          "internalType": "uint8",
          "name": "diceSum",
          "type": "uint8"
        }
      ],
      "stateMutability": "view",
      "type": "function"
    },
    {
      "inputs": [],
      "name": "deposit",
      "outputs": [],
      "stateMutability": "payable",
      "type": "function"
    },
    {
      "inputs": [],
      "name": "getBalance",
      "outputs": [
        {
          "internalType": "uint256",
          "name": "",
          "type": "uint256"
        }
      ],
      "stateMutability": "view",
      "type": "function"
    },
    {
      "inputs": [],
      "name": "owner",
      "outputs": [
        {
          "internalType": "address",
          "name": "",
          "type": "address"
        }
      ],
      "stateMutability": "view",
      "type": "function"
    },
    {
      "inputs": [
        {
          "internalType": "enum SevenUpDown.Option",
          "name": "_option",
          "type": "uint8"
        }
      ],
      "name": "placeBet",
      "outputs": [],
      "stateMutability": "nonpayable",
      "type": "function"
    },
    {
      "inputs": [],
      "name": "resolveBet",
      "outputs": [],
      "stateMutability": "nonpayable",
      "type": "function"
    },
    {
      "inputs": [
        {
          "internalType": "uint256",
          "name": "amount",
          "type": "uint256"
        }
      ],
      "name": "withdraw",
      "outputs": [],
      "stateMutability": "nonpayable",
      "type": "function"
    }
  ],
  "bytecode": "0x6080604052348015600f57600080fd5b50336000806101000a81548173ffffffffffffffffffffffffffffffffffffffff021916908373ffffffffffffffffffffffffffffffffffffffff160217905550610ee08061005f6000396000f3fe6080604052600436106100705760003560e01c806389a78f1a1161004e57806389a78f1a146100f25780638da5cb5b146101315780638fced6261461015c578063d0e30db01461017357610070565b806312065fe0146100755780632e1a7d4d146100a057806343046844146100c9575b600080fd5b34801561008157600080fd5b5061008a61017d565b60405161009791906108d7565b60405180910390f35b3480156100ac57600080fd5b506100c760048036038101906100c29190610923565b610185565b005b3480156100d557600080fd5b506100f060048036038101906100eb9190610975565b6102c0565b005b3480156100fe57600080fd5b5061011960048036038101906101149190610a00565b6104e4565b60405161012893929190610adb565b60405180910390f35b34801561013d57600080fd5b50610146610535565b6040516101539190610b21565b60405180910390f35b34801561016857600080fd5b50610171610559565b005b61017b61082e565b005b600047905090565b60008054906101000a900473ffffffffffffffffffffffffffffffffffffffff1673ffffffffffffffffffffffffffffffffffffffff163373ffffffffffffffffffffffffffffffffffffffff1614610213576040517f08c379a000000000000000000000000000000000000000000000000000000000815260040161020a90610b99565b60405180910390fd5b80471015610256576040517f08c379a000000000000000000000000000000000000000000000000000000000815260040161024d90610c05565b60405180910390fd5b60008054906101000a900473ffffffffffffffffffffffffffffffffffffffff1673ffffffffffffffffffffffffffffffffffffffff166108fc829081150290604051600060405180830381858888f193505050501580156102bc573d6000803e3d6000fd5b5050565b600160003373ffffffffffffffffffffffffffffffffffffffff1673ffffffffffffffffffffffffffffffffffffffff16815260200190815260200160002060000160019054906101000a900460ff168061036d57506000600160003373ffffffffffffffffffffffffffffffffffffffff1673ffffffffffffffffffffffffffffffffffffffff16815260200190815260200160002060000160029054906101000a900460ff1660ff16145b6103ac576040517f08c379a00000000000000000000000000000000000000000000000000000000081526004016103a390610c71565b60405180910390fd5b60405180606001604052808260028111156103ca576103c9610a2d565b5b8152602001600015158152602001600060ff16815250600160003373ffffffffffffffffffffffffffffffffffffffff1673ffffffffffffffffffffffffffffffffffffffff16815260200190815260200160002060008201518160000160006101000a81548160ff0219169083600281111561044a57610449610a2d565b5b021790555060208201518160000160016101000a81548160ff02191690831515021790555060408201518160000160026101000a81548160ff021916908360ff1602179055509050503373ffffffffffffffffffffffffffffffffffffffff167fa649479f89adca74c135944103b2997606519535720c4cd7e60e65ae051cf4dd826040516104d99190610c91565b60405180910390a250565b60016020528060005260406000206000915090508060000160009054906101000a900460ff16908060000160019054906101000a900460ff16908060000160029054906101000a900460ff16905083565b60008054906101000a900473ffffffffffffffffffffffffffffffffffffffff1681565b6000600160003373ffffffffffffffffffffffffffffffffffffffff1673ffffffffffffffffffffffffffffffffffffffff16815260200190815260200160002090508060000160019054906101000a900460ff16156105ee576040517f08c379a00000000000000000000000000000000000000000000000000000000081526004016105e590610cf8565b60405180910390fd5b60006002600b42443360405160200161060993929190610d81565b6040516020818303038152906040528051906020012060001c61062c9190610ded565b6106369190610e4d565b9050600060078260ff1610801561068257506000600281111561065c5761065b610a2d565b5b8360000160009054906101000a900460ff1660028111156106805761067f610a2d565b5b145b1561069757671bc16d674ec80000905061074e565b60078260ff161480156106df5750600160028111156106b9576106b8610a2d565b5b8360000160009054906101000a900460ff1660028111156106dd576106dc610a2d565b5b145b156106f457674563918244f40000905061074d565b60078260ff1611801561073b575060028081111561071557610714610a2d565b5b8360000160009054906101000a900460ff16600281111561073957610738610a2d565b5b145b1561074c57671bc16d674ec8000090505b5b5b60018360000160016101000a81548160ff021916908315150217905550818360000160026101000a81548160ff021916908360ff16021790555060008111156107d9573373ffffffffffffffffffffffffffffffffffffffff166108fc829081150290604051600060405180830381858888f193505050501580156107d7573d6000803e3d6000fd5b505b3373ffffffffffffffffffffffffffffffffffffffff167feac8061008bcce6940cc83015ceca0606dd2eb3e0425ca0c52c00b04726ae3678383604051610821929190610e81565b60405180910390a2505050565b60008054906101000a900473ffffffffffffffffffffffffffffffffffffffff1673ffffffffffffffffffffffffffffffffffffffff163373ffffffffffffffffffffffffffffffffffffffff16146108bc576040517f08c379a00000000000000000000000000000000000000000000000000000000081526004016108b390610b99565b60405180910390fd5b565b6000819050919050565b6108d1816108be565b82525050565b60006020820190506108ec60008301846108c8565b92915050565b600080fd5b610900816108be565b811461090b57600080fd5b50565b60008135905061091d816108f7565b92915050565b600060208284031215610939576109386108f2565b5b60006109478482850161090e565b91505092915050565b6003811061095d57600080fd5b50565b60008135905061096f81610950565b92915050565b60006020828403121561098b5761098a6108f2565b5b600061099984828501610960565b91505092915050565b600073ffffffffffffffffffffffffffffffffffffffff82169050919050565b60006109cd826109a2565b9050919050565b6109dd816109c2565b81146109e857600080fd5b50565b6000813590506109fa816109d4565b92915050565b600060208284031215610a1657610a156108f2565b5b6000610a24848285016109eb565b91505092915050565b7f4e487b7100000000000000000000000000000000000000000000000000000000600052602160045260246000fd5b60038110610a6d57610a6c610a2d565b5b50565b6000819050610a7e82610a5c565b919050565b6000610a8e82610a70565b9050919050565b610a9e81610a83565b82525050565b60008115159050919050565b610ab981610aa4565b82525050565b600060ff82169050919050565b610ad581610abf565b82525050565b6000606082019050610af06000830186610a95565b610afd6020830185610ab0565b610b0a6040830184610acc565b949350505050565b610b1b816109c2565b82525050565b6000602082019050610b366000830184610b12565b92915050565b600082825260208201905092915050565b7f4e6f74206f776e65720000000000000000000000000000000000000000000000600082015250565b6000610b83600983610b3c565b9150610b8e82610b4d565b602082019050919050565b60006020820190508181036000830152610bb281610b76565b9050919050565b7f496e73756666696369656e742062616c616e6365000000000000000000000000600082015250565b6000610bef601483610b3c565b9150610bfa82610bb9565b602082019050919050565b60006020820190508181036000830152610c1e81610be2565b9050919050565b7f5265736f6c76652070726576696f757320626574206669727374000000000000600082015250565b6000610c5b601a83610b3c565b9150610c6682610c25565b602082019050919050565b60006020820190508181036000830152610c8a81610c4e565b9050919050565b6000602082019050610ca66000830184610a95565b92915050565b7f416c7265616479207265736f6c76656400000000000000000000000000000000600082015250565b6000610ce2601083610b3c565b9150610ced82610cac565b602082019050919050565b60006020820190508181036000830152610d1181610cd5565b9050919050565b6000819050919050565b610d33610d2e826108be565b610d18565b82525050565b60008160601b9050919050565b6000610d5182610d39565b9050919050565b6000610d6382610d46565b9050919050565b610d7b610d76826109c2565b610d58565b82525050565b6000610d8d8286610d22565b602082019150610d9d8285610d22565b602082019150610dad8284610d6a565b601482019150819050949350505050565b7f4e487b7100000000000000000000000000000000000000000000000000000000600052601260045260246000fd5b6000610df8826108be565b9150610e03836108be565b925082610e1357610e12610dbe565b5b828206905092915050565b7f4e487b7100000000000000000000000000000000000000000000000000000000600052601160045260246000fd5b6000610e58826108be565b9150610e63836108be565b9250828201905080821115610e7b57610e7a610e1e565b5b92915050565b6000604082019050610e966000830185610acc565b610ea360208301846108c8565b939250505056fea26469706673582212201da42ce9b30b9acb99ed7bd7c095456eebf42fbd2fc24d54ddff4bf924325b3764736f6c634300081c0033",
  "linkReferences": {},
  "deployedLinkReferences": {}
}